{
    "_format": "hh-sol-artifact-1",
    "contractName": "WeLockIt",
    "sourceName": "contracts/WeLockIt.sol",
    "abi": [
        {
            "inputs": [],
            "stateMutability": "nonpayable",
            "type": "constructor"
        },
        {
            "inputs": [
                {
                    "internalType": "address",
                    "name": "target",
                    "type": "address"
                }
            ],
            "name": "AddressEmptyCode",
            "type": "error"
        },
        {
            "inputs": [
                {
                    "internalType": "address",
                    "name": "account",
                    "type": "address"
                }
            ],
            "name": "AddressInsufficientBalance",
            "type": "error"
        },
        {
            "inputs": [],
            "name": "FailedInnerCall",
            "type": "error"
        },
        {
            "inputs": [
                {
                    "internalType": "address",
                    "name": "token",
                    "type": "address"
                }
            ],
            "name": "SafeERC20FailedOperation",
            "type": "error"
        },
        {
            "anonymous": false,
            "inputs": [
                {
                    "indexed": true,
                    "internalType": "uint256",
                    "name": "id",
                    "type": "uint256"
                },
                {
                    "indexed": false,
                    "internalType": "address",
                    "name": "token",
                    "type": "address"
                },
                {
                    "indexed": false,
                    "internalType": "address",
                    "name": "owner",
                    "type": "address"
                },
                {
                    "indexed": false,
                    "internalType": "uint256",
                    "name": "amount",
                    "type": "uint256"
                },
                {
                    "indexed": false,
                    "internalType": "uint256",
                    "name": "unlockDate",
                    "type": "uint256"
                }
            ],
            "name": "LockAdded",
            "type": "event"
        },
        {
            "anonymous": false,
            "inputs": [
                {
                    "indexed": false,
                    "internalType": "uint256",
                    "name": "lockId",
                    "type": "uint256"
                }
            ],
            "name": "LockDescriptionChanged",
            "type": "event"
        },
        {
            "anonymous": false,
            "inputs": [
                {
                    "indexed": false,
                    "internalType": "uint256",
                    "name": "lockId",
                    "type": "uint256"
                },
                {
                    "indexed": false,
                    "internalType": "address",
                    "name": "owner",
                    "type": "address"
                },
                {
                    "indexed": false,
                    "internalType": "address",
                    "name": "newOwner",
                    "type": "address"
                }
            ],
            "name": "LockOwnerChanged",
            "type": "event"
        },
        {
            "anonymous": false,
            "inputs": [
                {
                    "indexed": true,
                    "internalType": "uint256",
                    "name": "id",
                    "type": "uint256"
                },
                {
                    "indexed": false,
                    "internalType": "address",
                    "name": "token",
                    "type": "address"
                },
                {
                    "indexed": false,
                    "internalType": "address",
                    "name": "owner",
                    "type": "address"
                },
                {
                    "indexed": false,
                    "internalType": "uint256",
                    "name": "amount",
                    "type": "uint256"
                },
                {
                    "indexed": false,
                    "internalType": "uint256",
                    "name": "unlockedAt",
                    "type": "uint256"
                }
            ],
            "name": "LockRemoved",
            "type": "event"
        },
        {
            "anonymous": false,
            "inputs": [
                {
                    "indexed": true,
                    "internalType": "uint256",
                    "name": "id",
                    "type": "uint256"
                },
                {
                    "indexed": false,
                    "internalType": "address",
                    "name": "token",
                    "type": "address"
                },
                {
                    "indexed": false,
                    "internalType": "address",
                    "name": "owner",
                    "type": "address"
                },
                {
                    "indexed": false,
                    "internalType": "uint256",
                    "name": "newAmount",
                    "type": "uint256"
                },
                {
                    "indexed": false,
                    "internalType": "uint256",
                    "name": "newUnlockDate",
                    "type": "uint256"
                }
            ],
            "name": "LockUpdated",
            "type": "event"
        },
        {
            "inputs": [],
            "name": "allLpTokenLockedCount",
            "outputs": [
                {
                    "internalType": "uint256",
                    "name": "",
                    "type": "uint256"
                }
            ],
            "stateMutability": "view",
            "type": "function"
        },
        {
            "inputs": [],
            "name": "allNormalTokenLockedCount",
            "outputs": [
                {
                    "internalType": "uint256",
                    "name": "",
                    "type": "uint256"
                }
            ],
            "stateMutability": "view",
            "type": "function"
        },
        {
            "inputs": [
                {
                    "internalType": "address",
                    "name": "",
                    "type": "address"
                }
            ],
            "name": "cumulativeLockInfo",
            "outputs": [
                {
                    "internalType": "address",
                    "name": "token",
                    "type": "address"
                },
                {
                    "internalType": "address",
                    "name": "factory",
                    "type": "address"
                },
                {
                    "internalType": "uint256",
                    "name": "amount",
                    "type": "uint256"
                }
            ],
            "stateMutability": "view",
            "type": "function"
        },
        {
            "inputs": [
                {
                    "internalType": "uint256",
                    "name": "lockId",
                    "type": "uint256"
                },
                {
                    "internalType": "uint256",
                    "name": "newAmount",
                    "type": "uint256"
                },
                {
                    "internalType": "uint256",
                    "name": "newUnlockDate",
                    "type": "uint256"
                }
            ],
            "name": "editLock",
            "outputs": [],
            "stateMutability": "nonpayable",
            "type": "function"
        },
        {
            "inputs": [
                {
                    "internalType": "uint256",
                    "name": "lockId",
                    "type": "uint256"
                },
                {
                    "internalType": "string",
                    "name": "description",
                    "type": "string"
                }
            ],
            "name": "editLockDescription",
            "outputs": [],
            "stateMutability": "nonpayable",
            "type": "function"
        },
        {
            "inputs": [
                {
                    "internalType": "uint256",
                    "name": "start",
                    "type": "uint256"
                },
                {
                    "internalType": "uint256",
                    "name": "end",
                    "type": "uint256"
                }
            ],
            "name": "getCumulativeLpTokenLockInfo",
            "outputs": [
                {
                    "components": [
                        {
                            "internalType": "address",
                            "name": "token",
                            "type": "address"
                        },
                        {
                            "internalType": "address",
                            "name": "factory",
                            "type": "address"
                        },
                        {
                            "internalType": "uint256",
                            "name": "amount",
                            "type": "uint256"
                        }
                    ],
                    "internalType": "struct WeLockIt.CumulativeLockInfo[]",
                    "name": "",
                    "type": "tuple[]"
                }
            ],
            "stateMutability": "view",
            "type": "function"
        },
        {
            "inputs": [
                {
                    "internalType": "uint256",
                    "name": "index",
                    "type": "uint256"
                }
            ],
            "name": "getCumulativeLpTokenLockInfoAt",
            "outputs": [
                {
                    "components": [
                        {
                            "internalType": "address",
                            "name": "token",
                            "type": "address"
                        },
                        {
                            "internalType": "address",
                            "name": "factory",
                            "type": "address"
                        },
                        {
                            "internalType": "uint256",
                            "name": "amount",
                            "type": "uint256"
                        }
                    ],
                    "internalType": "struct WeLockIt.CumulativeLockInfo",
                    "name": "",
                    "type": "tuple"
                }
            ],
            "stateMutability": "view",
            "type": "function"
        },
        {
            "inputs": [
                {
                    "internalType": "uint256",
                    "name": "start",
                    "type": "uint256"
                },
                {
                    "internalType": "uint256",
                    "name": "end",
                    "type": "uint256"
                }
            ],
            "name": "getCumulativeNormalTokenLockInfo",
            "outputs": [
                {
                    "components": [
                        {
                            "internalType": "address",
                            "name": "token",
                            "type": "address"
                        },
                        {
                            "internalType": "address",
                            "name": "factory",
                            "type": "address"
                        },
                        {
                            "internalType": "uint256",
                            "name": "amount",
                            "type": "uint256"
                        }
                    ],
                    "internalType": "struct WeLockIt.CumulativeLockInfo[]",
                    "name": "",
                    "type": "tuple[]"
                }
            ],
            "stateMutability": "view",
            "type": "function"
        },
        {
            "inputs": [
                {
                    "internalType": "uint256",
                    "name": "index",
                    "type": "uint256"
                }
            ],
            "name": "getCumulativeNormalTokenLockInfoAt",
            "outputs": [
                {
                    "components": [
                        {
                            "internalType": "address",
                            "name": "token",
                            "type": "address"
                        },
                        {
                            "internalType": "address",
                            "name": "factory",
                            "type": "address"
                        },
                        {
                            "internalType": "uint256",
                            "name": "amount",
                            "type": "uint256"
                        }
                    ],
                    "internalType": "struct WeLockIt.CumulativeLockInfo",
                    "name": "",
                    "type": "tuple"
                }
            ],
            "stateMutability": "view",
            "type": "function"
        },
        {
            "inputs": [
                {
                    "internalType": "uint256",
                    "name": "index",
                    "type": "uint256"
                }
            ],
            "name": "getLockAt",
            "outputs": [
                {
                    "components": [
                        {
                            "internalType": "uint256",
                            "name": "id",
                            "type": "uint256"
                        },
                        {
                            "internalType": "address",
                            "name": "token",
                            "type": "address"
                        },
                        {
                            "internalType": "address",
                            "name": "owner",
                            "type": "address"
                        },
                        {
                            "internalType": "uint256",
                            "name": "amount",
                            "type": "uint256"
                        },
                        {
                            "internalType": "uint256",
                            "name": "lockDate",
                            "type": "uint256"
                        },
                        {
                            "internalType": "uint256",
                            "name": "tgeDate",
                            "type": "uint256"
                        },
                        {
                            "internalType": "uint256",
                            "name": "tgeBps",
                            "type": "uint256"
                        },
                        {
                            "internalType": "uint256",
                            "name": "cycle",
                            "type": "uint256"
                        },
                        {
                            "internalType": "uint256",
                            "name": "cycleBps",
                            "type": "uint256"
                        },
                        {
                            "internalType": "uint256",
                            "name": "unlockedAmount",
                            "type": "uint256"
                        },
                        {
                            "internalType": "string",
                            "name": "description",
                            "type": "string"
                        }
                    ],
                    "internalType": "struct WeLockIt.Lock",
                    "name": "",
                    "type": "tuple"
                }
            ],
            "stateMutability": "view",
            "type": "function"
        },
        {
            "inputs": [
                {
                    "internalType": "uint256",
                    "name": "lockId",
                    "type": "uint256"
                }
            ],
            "name": "getLockById",
            "outputs": [
                {
                    "components": [
                        {
                            "internalType": "uint256",
                            "name": "id",
                            "type": "uint256"
                        },
                        {
                            "internalType": "address",
                            "name": "token",
                            "type": "address"
                        },
                        {
                            "internalType": "address",
                            "name": "owner",
                            "type": "address"
                        },
                        {
                            "internalType": "uint256",
                            "name": "amount",
                            "type": "uint256"
                        },
                        {
                            "internalType": "uint256",
                            "name": "lockDate",
                            "type": "uint256"
                        },
                        {
                            "internalType": "uint256",
                            "name": "tgeDate",
                            "type": "uint256"
                        },
                        {
                            "internalType": "uint256",
                            "name": "tgeBps",
                            "type": "uint256"
                        },
                        {
                            "internalType": "uint256",
                            "name": "cycle",
                            "type": "uint256"
                        },
                        {
                            "internalType": "uint256",
                            "name": "cycleBps",
                            "type": "uint256"
                        },
                        {
                            "internalType": "uint256",
                            "name": "unlockedAmount",
                            "type": "uint256"
                        },
                        {
                            "internalType": "string",
                            "name": "description",
                            "type": "string"
                        }
                    ],
                    "internalType": "struct WeLockIt.Lock",
                    "name": "",
                    "type": "tuple"
                }
            ],
            "stateMutability": "view",
            "type": "function"
        },
        {
            "inputs": [
                {
                    "internalType": "address",
                    "name": "token",
                    "type": "address"
                },
                {
                    "internalType": "uint256",
                    "name": "start",
                    "type": "uint256"
                },
                {
                    "internalType": "uint256",
                    "name": "end",
                    "type": "uint256"
                }
            ],
            "name": "getLocksForToken",
            "outputs": [
                {
                    "components": [
                        {
                            "internalType": "uint256",
                            "name": "id",
                            "type": "uint256"
                        },
                        {
                            "internalType": "address",
                            "name": "token",
                            "type": "address"
                        },
                        {
                            "internalType": "address",
                            "name": "owner",
                            "type": "address"
                        },
                        {
                            "internalType": "uint256",
                            "name": "amount",
                            "type": "uint256"
                        },
                        {
                            "internalType": "uint256",
                            "name": "lockDate",
                            "type": "uint256"
                        },
                        {
                            "internalType": "uint256",
                            "name": "tgeDate",
                            "type": "uint256"
                        },
                        {
                            "internalType": "uint256",
                            "name": "tgeBps",
                            "type": "uint256"
                        },
                        {
                            "internalType": "uint256",
                            "name": "cycle",
                            "type": "uint256"
                        },
                        {
                            "internalType": "uint256",
                            "name": "cycleBps",
                            "type": "uint256"
                        },
                        {
                            "internalType": "uint256",
                            "name": "unlockedAmount",
                            "type": "uint256"
                        },
                        {
                            "internalType": "string",
                            "name": "description",
                            "type": "string"
                        }
                    ],
                    "internalType": "struct WeLockIt.Lock[]",
                    "name": "",
                    "type": "tuple[]"
                }
            ],
            "stateMutability": "view",
            "type": "function"
        },
        {
            "inputs": [],
            "name": "getTotalLockCount",
            "outputs": [
                {
                    "internalType": "uint256",
                    "name": "",
                    "type": "uint256"
                }
            ],
            "stateMutability": "view",
            "type": "function"
        },
        {
            "inputs": [
                {
                    "internalType": "address",
                    "name": "owner",
                    "type": "address"
                },
                {
                    "internalType": "address",
                    "name": "token",
                    "type": "address"
                },
                {
                    "internalType": "bool",
                    "name": "isLpToken",
                    "type": "bool"
                },
                {
                    "internalType": "uint256",
                    "name": "amount",
                    "type": "uint256"
                },
                {
                    "internalType": "uint256",
                    "name": "unlockDate",
                    "type": "uint256"
                },
                {
                    "internalType": "string",
                    "name": "description",
                    "type": "string"
                }
            ],
            "name": "lock",
            "outputs": [
                {
                    "internalType": "uint256",
                    "name": "id",
                    "type": "uint256"
                }
            ],
            "stateMutability": "payable",
            "type": "function"
        },
        {
            "inputs": [],
            "name": "lockFee",
            "outputs": [
                {
                    "internalType": "uint256",
                    "name": "",
                    "type": "uint256"
                }
            ],
            "stateMutability": "view",
            "type": "function"
        },
        {
            "inputs": [
                {
                    "internalType": "address",
                    "name": "user",
                    "type": "address"
                }
            ],
            "name": "lpLockCountForUser",
            "outputs": [
                {
                    "internalType": "uint256",
                    "name": "",
                    "type": "uint256"
                }
            ],
            "stateMutability": "view",
            "type": "function"
        },
        {
            "inputs": [
                {
                    "internalType": "address",
                    "name": "user",
                    "type": "address"
                },
                {
                    "internalType": "uint256",
                    "name": "index",
                    "type": "uint256"
                }
            ],
            "name": "lpLockForUserAtIndex",
            "outputs": [
                {
                    "components": [
                        {
                            "internalType": "uint256",
                            "name": "id",
                            "type": "uint256"
                        },
                        {
                            "internalType": "address",
                            "name": "token",
                            "type": "address"
                        },
                        {
                            "internalType": "address",
                            "name": "owner",
                            "type": "address"
                        },
                        {
                            "internalType": "uint256",
                            "name": "amount",
                            "type": "uint256"
                        },
                        {
                            "internalType": "uint256",
                            "name": "lockDate",
                            "type": "uint256"
                        },
                        {
                            "internalType": "uint256",
                            "name": "tgeDate",
                            "type": "uint256"
                        },
                        {
                            "internalType": "uint256",
                            "name": "tgeBps",
                            "type": "uint256"
                        },
                        {
                            "internalType": "uint256",
                            "name": "cycle",
                            "type": "uint256"
                        },
                        {
                            "internalType": "uint256",
                            "name": "cycleBps",
                            "type": "uint256"
                        },
                        {
                            "internalType": "uint256",
                            "name": "unlockedAmount",
                            "type": "uint256"
                        },
                        {
                            "internalType": "string",
                            "name": "description",
                            "type": "string"
                        }
                    ],
                    "internalType": "struct WeLockIt.Lock",
                    "name": "",
                    "type": "tuple"
                }
            ],
            "stateMutability": "view",
            "type": "function"
        },
        {
            "inputs": [
                {
                    "internalType": "address",
                    "name": "user",
                    "type": "address"
                }
            ],
            "name": "lpLocksForUser",
            "outputs": [
                {
                    "components": [
                        {
                            "internalType": "uint256",
                            "name": "id",
                            "type": "uint256"
                        },
                        {
                            "internalType": "address",
                            "name": "token",
                            "type": "address"
                        },
                        {
                            "internalType": "address",
                            "name": "owner",
                            "type": "address"
                        },
                        {
                            "internalType": "uint256",
                            "name": "amount",
                            "type": "uint256"
                        },
                        {
                            "internalType": "uint256",
                            "name": "lockDate",
                            "type": "uint256"
                        },
                        {
                            "internalType": "uint256",
                            "name": "tgeDate",
                            "type": "uint256"
                        },
                        {
                            "internalType": "uint256",
                            "name": "tgeBps",
                            "type": "uint256"
                        },
                        {
                            "internalType": "uint256",
                            "name": "cycle",
                            "type": "uint256"
                        },
                        {
                            "internalType": "uint256",
                            "name": "cycleBps",
                            "type": "uint256"
                        },
                        {
                            "internalType": "uint256",
                            "name": "unlockedAmount",
                            "type": "uint256"
                        },
                        {
                            "internalType": "string",
                            "name": "description",
                            "type": "string"
                        }
                    ],
                    "internalType": "struct WeLockIt.Lock[]",
                    "name": "",
                    "type": "tuple[]"
                }
            ],
            "stateMutability": "view",
            "type": "function"
        },
        {
            "inputs": [
                {
                    "internalType": "address",
                    "name": "user",
                    "type": "address"
                }
            ],
            "name": "normalLockCountForUser",
            "outputs": [
                {
                    "internalType": "uint256",
                    "name": "",
                    "type": "uint256"
                }
            ],
            "stateMutability": "view",
            "type": "function"
        },
        {
            "inputs": [
                {
                    "internalType": "address",
                    "name": "user",
                    "type": "address"
                },
                {
                    "internalType": "uint256",
                    "name": "index",
                    "type": "uint256"
                }
            ],
            "name": "normalLockForUserAtIndex",
            "outputs": [
                {
                    "components": [
                        {
                            "internalType": "uint256",
                            "name": "id",
                            "type": "uint256"
                        },
                        {
                            "internalType": "address",
                            "name": "token",
                            "type": "address"
                        },
                        {
                            "internalType": "address",
                            "name": "owner",
                            "type": "address"
                        },
                        {
                            "internalType": "uint256",
                            "name": "amount",
                            "type": "uint256"
                        },
                        {
                            "internalType": "uint256",
                            "name": "lockDate",
                            "type": "uint256"
                        },
                        {
                            "internalType": "uint256",
                            "name": "tgeDate",
                            "type": "uint256"
                        },
                        {
                            "internalType": "uint256",
                            "name": "tgeBps",
                            "type": "uint256"
                        },
                        {
                            "internalType": "uint256",
                            "name": "cycle",
                            "type": "uint256"
                        },
                        {
                            "internalType": "uint256",
                            "name": "cycleBps",
                            "type": "uint256"
                        },
                        {
                            "internalType": "uint256",
                            "name": "unlockedAmount",
                            "type": "uint256"
                        },
                        {
                            "internalType": "string",
                            "name": "description",
                            "type": "string"
                        }
                    ],
                    "internalType": "struct WeLockIt.Lock",
                    "name": "",
                    "type": "tuple"
                }
            ],
            "stateMutability": "view",
            "type": "function"
        },
        {
            "inputs": [
                {
                    "internalType": "address",
                    "name": "user",
                    "type": "address"
                }
            ],
            "name": "normalLocksForUser",
            "outputs": [
                {
                    "components": [
                        {
                            "internalType": "uint256",
                            "name": "id",
                            "type": "uint256"
                        },
                        {
                            "internalType": "address",
                            "name": "token",
                            "type": "address"
                        },
                        {
                            "internalType": "address",
                            "name": "owner",
                            "type": "address"
                        },
                        {
                            "internalType": "uint256",
                            "name": "amount",
                            "type": "uint256"
                        },
                        {
                            "internalType": "uint256",
                            "name": "lockDate",
                            "type": "uint256"
                        },
                        {
                            "internalType": "uint256",
                            "name": "tgeDate",
                            "type": "uint256"
                        },
                        {
                            "internalType": "uint256",
                            "name": "tgeBps",
                            "type": "uint256"
                        },
                        {
                            "internalType": "uint256",
                            "name": "cycle",
                            "type": "uint256"
                        },
                        {
                            "internalType": "uint256",
                            "name": "cycleBps",
                            "type": "uint256"
                        },
                        {
                            "internalType": "uint256",
                            "name": "unlockedAmount",
                            "type": "uint256"
                        },
                        {
                            "internalType": "string",
                            "name": "description",
                            "type": "string"
                        }
                    ],
                    "internalType": "struct WeLockIt.Lock[]",
                    "name": "",
                    "type": "tuple[]"
                }
            ],
            "stateMutability": "view",
            "type": "function"
        },
        {
            "inputs": [
                {
                    "internalType": "uint256",
                    "name": "lockId",
                    "type": "uint256"
                }
            ],
            "name": "renounceLockOwnership",
            "outputs": [],
            "stateMutability": "nonpayable",
            "type": "function"
        },
        {
            "inputs": [
                {
                    "internalType": "uint256",
                    "name": "fee",
                    "type": "uint256"
                }
            ],
            "name": "setLockFee",
            "outputs": [],
            "stateMutability": "nonpayable",
            "type": "function"
        },
        {
            "inputs": [
                {
                    "internalType": "address",
                    "name": "token",
                    "type": "address"
                }
            ],
            "name": "totalLockCountForToken",
            "outputs": [
                {
                    "internalType": "uint256",
                    "name": "",
                    "type": "uint256"
                }
            ],
            "stateMutability": "view",
            "type": "function"
        },
        {
            "inputs": [
                {
                    "internalType": "address",
                    "name": "user",
                    "type": "address"
                }
            ],
            "name": "totalLockCountForUser",
            "outputs": [
                {
                    "internalType": "uint256",
                    "name": "",
                    "type": "uint256"
                }
            ],
            "stateMutability": "view",
            "type": "function"
        },
        {
            "inputs": [],
            "name": "totalTokenLockedCount",
            "outputs": [
                {
                    "internalType": "uint256",
                    "name": "",
                    "type": "uint256"
                }
            ],
            "stateMutability": "view",
            "type": "function"
        },
        {
            "inputs": [
                {
                    "internalType": "uint256",
                    "name": "lockId",
                    "type": "uint256"
                },
                {
                    "internalType": "address",
                    "name": "newOwner",
                    "type": "address"
                }
            ],
            "name": "transferLockOwnership",
            "outputs": [],
            "stateMutability": "nonpayable",
            "type": "function"
        },
        {
            "inputs": [
                {
                    "internalType": "uint256",
                    "name": "lockId",
                    "type": "uint256"
                }
            ],
            "name": "unlock",
            "outputs": [],
            "stateMutability": "nonpayable",
            "type": "function"
        },
        {
            "inputs": [
                {
                    "internalType": "uint256",
                    "name": "lockId",
                    "type": "uint256"
                }
            ],
            "name": "withdrawableTokens",
            "outputs": [
                {
                    "internalType": "uint256",
                    "name": "",
                    "type": "uint256"
                }
            ],
            "stateMutability": "view",
            "type": "function"
        }
    ],
    "bytecode": "0x608060405234801561001057600080fd5b50600180546001600160a01b03191633179055612f39806100326000396000f3fe6080604052600436106101c25760003560e01c80639f7260bd116100f7578063cd83eadc11610095578063e3676f8811610064578063e3676f8814610547578063eb80bdae14610567578063eeacf78614610587578063fd981c66146105a757600080fd5b8063cd83eadc14610478578063d3cac88514610498578063da1d8cff146104b8578063e1444fd6146104d857600080fd5b8063aec640c6116100d1578063aec640c614610403578063aef0e54014610423578063b3b9aa4814610443578063b982922e1461046357600080fd5b80639f7260bd146103a3578063a20b8c18146103c3578063a57e3141146103e357600080fd5b806356a06235116101645780636198e3391161013e5780636198e339146103095780636dbdeab31461032957806376c12822146103495780637e6706d31461037657600080fd5b806356a06235146102b15780635a04fb69146102c7578063618df7a3146102e957600080fd5b80630d4f581a116101a05780630d4f581a1461023a5780631982242c1461025a578063332f26d71461026f578063475831c81461029c57600080fd5b806307279357146101c757806307873ef1146101ed57806308f124701461020d575b600080fd5b6101da6101d5366004612847565b6105bc565b6040519081526020015b60405180910390f35b3480156101f957600080fd5b506101da6102083660046128ce565b61076e565b34801561021957600080fd5b5061022d6102283660046128eb565b610795565b6040516101e491906129f5565b34801561024657600080fd5b5061022d6102553660046128eb565b6108e7565b34801561026657600080fd5b506101da610902565b34801561027b57600080fd5b5061028f61028a366004612a08565b610923565b6040516101e49190612a3d565b3480156102a857600080fd5b506101da610a6b565b3480156102bd57600080fd5b506101da60005481565b3480156102d357600080fd5b506102e76102e2366004612a9f565b610a77565b005b3480156102f557600080fd5b5061022d610304366004612acf565b610c0a565b34801561031557600080fd5b506102e76103243660046128eb565b610c7f565b34801561033557600080fd5b506101da6103443660046128eb565b610cf5565b34801561035557600080fd5b50610369610364366004612afb565b610d0c565b6040516101e49190612b1d565b34801561038257600080fd5b506103966103913660046128eb565b610e63565b6040516101e49190612b8d565b3480156103af57600080fd5b506102e76103be3660046128eb565b610eda565b3480156103cf57600080fd5b506103966103de3660046128eb565b610f25565b3480156103ef57600080fd5b506102e76103fe3660046128eb565b610f51565b34801561040f57600080fd5b5061036961041e366004612afb565b610f5f565b34801561042f57600080fd5b5061028f61043e3660046128ce565b6110ab565b34801561044f57600080fd5b506102e761045e366004612bbc565b611192565b34801561046f57600080fd5b506101da611429565b34801561048457600080fd5b506101da6104933660046128ce565b611435565b3480156104a457600080fd5b506102e76104b3366004612be8565b611453565b3480156104c457600080fd5b5061028f6104d33660046128ce565b611503565b3480156104e457600080fd5b506105216104f33660046128ce565b6009602052600090815260409020805460018201546002909201546001600160a01b03918216929091169083565b604080516001600160a01b039485168152939092166020840152908201526060016101e4565b34801561055357600080fd5b506101da6105623660046128ce565b6115e2565b34801561057357600080fd5b506101da6105823660046128ce565b611603565b34801561059357600080fd5b5061022d6105a2366004612acf565b611624565b3480156105b357600080fd5b506002546101da565b600080543410156106145760405162461bcd60e51b815260206004820152601860248201527f53656e64206c6f636b2066656520746f2070726f63656564000000000000000060448201526064015b60405180910390fd5b6001600160a01b03861661065a5760405162461bcd60e51b815260206004820152600d60248201526c24b73b30b634b2103a37b5b2b760991b604482015260640161060b565b600084116106aa5760405162461bcd60e51b815260206004820152601f60248201527f416d6f756e742073686f756c642062652067726561746572207468616e203000604482015260640161060b565b4283116107055760405162461bcd60e51b815260206004820152602360248201527f556e6c6f636b20646174652073686f756c6420626520696e207468652066757460448201526275726560e81b606482015260840161060b565b610718878787878760008060008a611699565b9050610726863330876116e7565b807f694af1cc8727cdd0afbdd53d9b87b69248bd490224e9dd090e788546506e076f8789878760405161075c9493929190612c2f565b60405180910390a29695505050505050565b6001600160a01b038116600090815260036020526040812061078f9061183c565b92915050565b61079d612715565b60026107a883611846565b815481106107b8576107b8612c58565b60009182526020918290206040805161016081018252600b9093029091018054835260018101546001600160a01b03908116948401949094526002810154909316908201526003820154606082015260048201546080820152600582015460a0820152600682015460c0820152600782015460e082015260088201546101008201526009820154610120820152600a820180549192916101408401919061085e90612c6e565b80601f016020809104026020016040519081016040528092919081815260200182805461088a90612c6e565b80156108d75780601f106108ac576101008083540402835291602001916108d7565b820191906000526020600020905b8154815290600101906020018083116108ba57829003601f168201915b5050505050815250509050919050565b6108ef612715565b600282815481106107b8576107b8612c58565b600061090c610a6b565b610914611429565b61091e9190612cbe565b905090565b6001600160a01b0383166000908152600a602052604090206060906109479061183c565b821061097e576001600160a01b0384166000908152600a602052604090206001906109719061183c565b61097b9190612cd1565b91505b600061098a8484612cd1565b610995906001612cbe565b905060008167ffffffffffffffff8111156109b2576109b26127a4565b6040519080825280602002602001820160405280156109eb57816020015b6109d8612715565b8152602001906001900390816109d05790505b5090506000855b858111610a5d576001600160a01b0388166000908152600a60205260409020610a1f9061022890836118e2565b838381518110610a3157610a31612c58565b60200260200101819052508180610a4790612ce4565b9250508080610a5590612ce4565b9150506109f2565b5090925050505b9392505050565b600061091e600761183c565b81610a8181611846565b5060006002610a8f85611846565b81548110610a9f57610a9f612c58565b60009182526020909120600b9091020160028101549091506001600160a01b0316338114610adf5760405162461bcd60e51b815260040161060b90612cfd565b6002820180546001600160a01b0319166001600160a01b0386811691909117909155600180840154821660009081526009602052604090209081015490911615801590610b71576001600160a01b0383166000908152600360205260409020610b4890886118ee565b506001600160a01b0386166000908152600360205260409020610b6b90886118fa565b50610bb8565b6001600160a01b0383166000908152600460205260409020610b9390886118ee565b506001600160a01b0386166000908152600460205260409020610bb690886118fa565b505b604080518881526001600160a01b03858116602083015288168183015290517f9075ad040756c0d8743a1fed927066a92c4755071615bf61e04b17583d961caf9181900360600190a150505050505050565b610c12612715565b81610c1c84611603565b11610c595760405162461bcd60e51b815260206004820152600d60248201526c092dcecc2d8d2c840d2dcc8caf609b1b604482015260640161060b565b6001600160a01b0383166000908152600460205260409020610a649061022890846118e2565b80610c8981611846565b5060006002610c9784611846565b81548110610ca757610ca7612c58565b600091825260209091206002600b90920201908101549091506001600160a01b03163314610ce75760405162461bcd60e51b815260040161060b90612cfd565b610cf081611906565b505050565b600080610d0183610795565b9050610a6481611b25565b6060610d18600761183c565b8210610d37576001610d2a600761183c565b610d349190612cd1565b91505b6000610d438484612cd1565b610d4e906001612cbe565b905060008167ffffffffffffffff811115610d6b57610d6b6127a4565b604051908082528060200260200182016040528015610db657816020015b6040805160608101825260008082526020808301829052928201528252600019909201910181610d895790505b5090506000855b858111610e585760096000610dd36007846118e2565b6001600160a01b03908116825260208083019390935260409182016000208251606081018452815483168152600182015490921693820193909352600290920154908201528351849084908110610e2c57610e2c612c58565b60200260200101819052508180610e4290612ce4565b9250508080610e5090612ce4565b915050610dbd565b509095945050505050565b604080516060810182526000808252602082018190529181019190915260096000610e8f6007856118e2565b6001600160a01b039081168252602080830193909352604091820160002082516060810184528154831681526001820154909216938201939093526002909201549082015292915050565b6001546001600160a01b03163314610f205760405162461bcd60e51b81526020600482015260096024820152682737ba1037bbb732b960b91b604482015260640161060b565b600055565b604080516060810182526000808252602082018190529181019190915260096000610e8f6005856118e2565b610f5c816000610a77565b50565b6060610f6b600561183c565b8210610f8a576001610f7d600561183c565b610f879190612cd1565b91505b6000610f968484612cd1565b610fa1906001612cbe565b905060008167ffffffffffffffff811115610fbe57610fbe6127a4565b60405190808252806020026020018201604052801561100957816020015b6040805160608101825260008082526020808301829052928201528252600019909201910181610fdc5790505b5090506000855b858111610e5857600960006110266005846118e2565b6001600160a01b0390811682526020808301939093526040918201600020825160608101845281548316815260018201549092169382019390935260029092015490820152835184908490811061107f5761107f612c58565b6020026020010181905250818061109590612ce4565b92505080806110a390612ce4565b915050611010565b6001600160a01b0381166000908152600360205260408120606091906110d09061183c565b905060008167ffffffffffffffff8111156110ed576110ed6127a4565b60405190808252806020026020018201604052801561112657816020015b611113612715565b81526020019060019003908161110b5790505b50905060005b8281101561118a576001600160a01b038516600090815260036020526040902061115a9061022890836118e2565b82828151811061116c5761116c612c58565b6020026020010181905250808061118290612ce4565b91505061112c565b509392505050565b8261119c81611846565b50600060026111aa86611846565b815481106111ba576111ba612c58565b600091825260209091206002600b90920201908101549091506001600160a01b031633146111fa5760405162461bcd60e51b815260040161060b90612cfd565b6009810154156112405760405162461bcd60e51b8152602060048201526011602482015270131bd8dac81dd85cc81d5b9b1bd8dad959607a1b604482015260640161060b565b82156112e1578060050154831015801561125957504283115b6112d95760405162461bcd60e51b8152602060048201526044602482018190527f4e657720756e6c6f636b2074696d652073686f756c64206e6f74206265206265908201527f666f7265206f6c6420756e6c6f636b2074696d65206f722063757272656e742060648201526374696d6560e01b608482015260a40161060b565b600581018390555b83156113c55780600301548410156113555760405162461bcd60e51b815260206004820152603160248201527f4e657720616d6f756e742073686f756c64206e6f74206265206c657373207468604482015270185b8818dd5c9c995b9d08185b5bdd5b9d607a1b606482015260840161060b565b60008160030154856113679190612cd1565b905080156113c3576003820185905560018201546001600160a01b0316600090815260096020526040902060028101546113a2908390612cbe565b600282015560018301546113c1906001600160a01b03163330856116e7565b505b505b805460018201546002830154600384015460058501546040517fa8b26360df8d5e154ffa5a8a7e894e85f781acfbbef0b744fb9551d8fd0fd36c9461141a946001600160a01b03918216949116929091612c2f565b60405180910390a25050505050565b600061091e600561183c565b60006114408261076e565b61144983611603565b61078f9190612cbe565b8161145d81611846565b506000600261146b85611846565b8154811061147b5761147b612c58565b600091825260209091206002600b90920201908101549091506001600160a01b031633146114bb5760405162461bcd60e51b815260040161060b90612cfd565b600a81016114c98482612d85565b506040518481527fe4a1120fd509c50aec65802fd3c3c9a4b72bf746fe9a552396185c6de928e8aa9060200160405180910390a150505050565b6001600160a01b0381166000908152600460205260408120606091906115289061183c565b905060008167ffffffffffffffff811115611545576115456127a4565b60405190808252806020026020018201604052801561157e57816020015b61156b612715565b8152602001906001900390816115635790505b50905060005b8281101561118a576001600160a01b03851660009081526004602052604090206115b29061022890836118e2565b8282815181106115c4576115c4612c58565b602002602001018190525080806115da90612ce4565b915050611584565b6001600160a01b0381166000908152600a6020526040812061078f9061183c565b6001600160a01b038116600090815260046020526040812061078f9061183c565b61162c612715565b816116368461076e565b116116735760405162461bcd60e51b815260206004820152600d60248201526c092dcecc2d8d2c840d2dcc8caf609b1b604482015260640161060b565b6001600160a01b0383166000908152600360205260409020610a649061022890846118e2565b600087156116c75760006116ac8a611c39565b90506116bf8b8b838b8b8b8b8b8b611d4d565b9150506116da565b6116d78a8a898989898989611e26565b90505b9998505050505050505050565b6040516370a0823160e01b81526001600160a01b038381166004830152600091908616906370a0823190602401602060405180830381865afa158015611731573d6000803e3d6000fd5b505050506040513d601f19601f820116820180604052508101906117559190612e45565b905061176c6001600160a01b038616858585611ef8565b6040516370a0823160e01b81526001600160a01b038481166004830152600091908716906370a0823190602401602060405180830381865afa1580156117b6573d6000803e3d6000fd5b505050506040513d601f19601f820116820180604052508101906117da9190612e45565b9050826117e78383612cd1565b146118345760405162461bcd60e51b815260206004820152601f60248201527f4e6f7420656e6f75676820746f6b656e20776173207472616e73666572656400604482015260640161060b565b505050505050565b600061078f825490565b6000620f424082101561188d5760405162461bcd60e51b815260206004820152600f60248201526e125b9d985b1a59081b1bd8dac81a59608a1b604482015260640161060b565b600061189c620f424084612cd1565b600254909150811061078f5760405162461bcd60e51b815260206004820152600f60248201526e125b9d985b1a59081b1bd8dac81a59608a1b604482015260640161060b565b6000610a648383611f65565b6000610a648383611f8f565b6000610a648383612082565b806005015442101561195a5760405162461bcd60e51b815260206004820152601860248201527f4974206973206e6f742074696d6520746f20756e6c6f636b0000000000000000604482015260640161060b565b6009810154156119a05760405162461bcd60e51b81526020600482015260116024820152704e6f7468696e6720746f20756e6c6f636b60781b604482015260640161060b565b6001808201546001600160a01b0390811660009081526009602052604090209182015416158015906119ec5782543360009081526003602052604090206119e6916118ee565b50611a08565b8254336000908152600460205260409020611a06916118ee565b505b600383015460028301548110611a245760006002840155611a3a565b808360020154611a349190612cd1565b60028401555b8260020154600003611a88578115611a6c576001840154611a66906005906001600160a01b03166120d1565b50611a88565b6001840154611a86906007906001600160a01b03166120d1565b505b60098401819055835460018501546001600160a01b03166000908152600a60205260409020611ab6916118ee565b506001840154611ad0906001600160a01b031633836120e6565b835460018501546040517fc6532367992b32e42a62dd89fc3574876d97d081a263aa6e030f34b79b7e6e8b91611b17916001600160a01b0390911690339086904290612c2f565b60405180910390a250505050565b60008160600151600003611b3b57506000919050565b816060015182610120015110611b5357506000919050565b8160a00151421015611b6757506000919050565b8160e00151600003611b7b57506000919050565b6000611b9283606001518460c00151612710612117565b90506000611bac8460600151856101000151612710612117565b905060008460a001514210611bf35782828660e001518760a0015142611bd29190612cd1565b611bdc9190612e5e565b611be69190612e80565b611bf09190612cbe565b90505b60008560600151821115611c1d578561012001518660600151611c169190612cd1565b9050611c30565b610120860151611c2d9083612cd1565b90505b95945050505050565b600080826001600160a01b031663c45a01556040518163ffffffff1660e01b8152600401602060405180830381865afa925050508015611c96575060408051601f3d908101601f19168201909252611c9391810190612e97565b60015b611ce25760405162461bcd60e51b815260206004820152601c60248201527f5468697320746f6b656e206973206e6f742061204c5020746f6b656e00000000604482015260640161060b565b90506001600160a01b03811615801590611d015750611d0183826121c5565b61078f5760405162461bcd60e51b815260206004820152601d60248201527f5468697320746f6b656e206973206e6f742061204c5020746f6b656e2e000000604482015260640161060b565b6000611d5f8a8a898989898989612328565b6001600160a01b038b166000908152600360205260409020909150611d8490826118fa565b50611d9060058a612596565b506001600160a01b03808a1660009081526009602052604090208054909116611de05780546001600160a01b03808c166001600160a01b0319928316178355600183018054918c16919092161790555b878160020154611df09190612cbe565b60028201556001600160a01b038a166000908152600a60205260409020611e1790836118fa565b50509998505050505050505050565b6000611e388989898989898989612328565b6001600160a01b038a166000908152600460205260409020909150611e5d90826118fa565b50611e69600789612596565b506001600160a01b0380891660009081526009602052604090208054909116611eb35780546001600160a01b038a166001600160a01b031991821617825560018201805490911690555b878160020154611ec39190612cbe565b60028201556001600160a01b0389166000908152600a60205260409020611eea90836118fa565b505098975050505050505050565b6040516001600160a01b038481166024830152838116604483015260648201839052611f5f9186918216906323b872dd906084015b604051602081830303815290604052915060e01b6020820180516001600160e01b0383818316178352505050506125ab565b50505050565b6000826000018281548110611f7c57611f7c612c58565b9060005260206000200154905092915050565b60008181526001830160205260408120548015612078576000611fb3600183612cd1565b8554909150600090611fc790600190612cd1565b905080821461202c576000866000018281548110611fe757611fe7612c58565b906000526020600020015490508087600001848154811061200a5761200a612c58565b6000918252602080832090910192909255918252600188019052604090208390555b855486908061203d5761203d612eb4565b60019003818190600052602060002001600090559055856001016000868152602001908152602001600020600090556001935050505061078f565b600091505061078f565b60008181526001830160205260408120546120c95750815460018181018455600084815260208082209093018490558454848252828601909352604090209190915561078f565b50600061078f565b6000610a64836001600160a01b038416611f8f565b6040516001600160a01b03838116602483015260448201839052610cf091859182169063a9059cbb90606401611f2d565b6000808060001985870985870292508281108382030391505080600003612150576000841161214557600080fd5b508290049050610a64565b80841161215c57600080fd5b60008486880960026001871981018816978890046003810283188082028403028082028403028082028403028082028403028082028403029081029092039091026000889003889004909101858311909403939093029303949094049190911702949350505050565b6000808390506000836001600160a01b031663e6a43905836001600160a01b0316630dfe16816040518163ffffffff1660e01b8152600401602060405180830381865afa15801561221a573d6000803e3d6000fd5b505050506040513d601f19601f8201168201806040525081019061223e9190612e97565b846001600160a01b031663d21220a76040518163ffffffff1660e01b8152600401602060405180830381865afa15801561227c573d6000803e3d6000fd5b505050506040513d601f19601f820116820180604052508101906122a09190612e97565b6040516001600160e01b031960e085901b1681526001600160a01b03928316600482015291166024820152604401602060405180830381865afa1580156122eb573d6000803e3d6000fd5b505050506040513d601f19601f8201168201806040525081019061230f9190612e97565b6001600160a01b03908116908616149250505092915050565b60025460009061233c90620f424090612cbe565b60408051610160810182528281526001600160a01b03808c16602083019081528d8216938301938452606083018c8152426080850190815260a085018d815260c086018d815260e087018d815261010088018d815260006101208a018181526101408b018f81526002805460018101825593528b51600b9093027f405787fa12a823e0f2b7631cc41b3ba8828b3321ca811111fa75cd3aa3bb5ace810193845599517f405787fa12a823e0f2b7631cc41b3ba8828b3321ca811111fa75cd3aa3bb5acf8b018054918d166001600160a01b03199283161790559c517f405787fa12a823e0f2b7631cc41b3ba8828b3321ca811111fa75cd3aa3bb5ad08b01805491909c169d169c909c1790995595517f405787fa12a823e0f2b7631cc41b3ba8828b3321ca811111fa75cd3aa3bb5ad188015593517f405787fa12a823e0f2b7631cc41b3ba8828b3321ca811111fa75cd3aa3bb5ad287015591517f405787fa12a823e0f2b7631cc41b3ba8828b3321ca811111fa75cd3aa3bb5ad3860155517f405787fa12a823e0f2b7631cc41b3ba8828b3321ca811111fa75cd3aa3bb5ad4850155517f405787fa12a823e0f2b7631cc41b3ba8828b3321ca811111fa75cd3aa3bb5ad5840155517f405787fa12a823e0f2b7631cc41b3ba8828b3321ca811111fa75cd3aa3bb5ad683015591517f405787fa12a823e0f2b7631cc41b3ba8828b3321ca811111fa75cd3aa3bb5ad78201559251939450909283927f405787fa12a823e0f2b7631cc41b3ba8828b3321ca811111fa75cd3aa3bb5ad801906125869082612d85565b5050505098975050505050505050565b6000610a64836001600160a01b038416612082565b60006125c06001600160a01b0384168361260e565b905080516000141580156125e55750808060200190518101906125e39190612eca565b155b15610cf057604051635274afe760e01b81526001600160a01b038416600482015260240161060b565b6060610a648383600084600080856001600160a01b031684866040516126349190612ee7565b60006040518083038185875af1925050503d8060008114612671576040519150601f19603f3d011682016040523d82523d6000602084013e612676565b606091505b5091509150612686868383612690565b9695505050505050565b6060826126a5576126a0826126ec565b610a64565b81511580156126bc57506001600160a01b0384163b155b156126e557604051639996b31560e01b81526001600160a01b038516600482015260240161060b565b5080610a64565b8051156126fc5780518082602001fd5b604051630a12f52160e11b815260040160405180910390fd5b6040518061016001604052806000815260200160006001600160a01b0316815260200160006001600160a01b0316815260200160008152602001600081526020016000815260200160008152602001600081526020016000815260200160008152602001606081525090565b6001600160a01b0381168114610f5c57600080fd5b8015158114610f5c57600080fd5b634e487b7160e01b600052604160045260246000fd5b600082601f8301126127cb57600080fd5b813567ffffffffffffffff808211156127e6576127e66127a4565b604051601f8301601f19908116603f0116810190828211818310171561280e5761280e6127a4565b8160405283815286602085880101111561282757600080fd5b836020870160208301376000602085830101528094505050505092915050565b60008060008060008060c0878903121561286057600080fd5b863561286b81612781565b9550602087013561287b81612781565b9450604087013561288b81612796565b9350606087013592506080870135915060a087013567ffffffffffffffff8111156128b557600080fd5b6128c189828a016127ba565b9150509295509295509295565b6000602082840312156128e057600080fd5b8135610a6481612781565b6000602082840312156128fd57600080fd5b5035919050565b60005b8381101561291f578181015183820152602001612907565b50506000910152565b60008151808452612940816020860160208601612904565b601f01601f19169290920160200192915050565b600061016082518452602083015161297760208601826001600160a01b03169052565b50604083015161299260408601826001600160a01b03169052565b50606083015160608501526080830151608085015260a083015160a085015260c083015160c085015260e083015160e085015261010080840151818601525061012080840151818601525061014080840151828287015261268683870182612928565b602081526000610a646020830184612954565b600080600060608486031215612a1d57600080fd5b8335612a2881612781565b95602085013595506040909401359392505050565b6000602080830181845280855180835260408601915060408160051b870101925083870160005b82811015612a9257603f19888603018452612a80858351612954565b94509285019290850190600101612a64565b5092979650505050505050565b60008060408385031215612ab257600080fd5b823591506020830135612ac481612781565b809150509250929050565b60008060408385031215612ae257600080fd5b8235612aed81612781565b946020939093013593505050565b60008060408385031215612b0e57600080fd5b50508035926020909101359150565b6020808252825182820181905260009190848201906040850190845b81811015612b8157612b6e83855180516001600160a01b03908116835260208083015190911690830152604090810151910152565b9284019260609290920191600101612b39565b50909695505050505050565b81516001600160a01b03908116825260208084015190911690820152604080830151908201526060810161078f565b600080600060608486031215612bd157600080fd5b505081359360208301359350604090920135919050565b60008060408385031215612bfb57600080fd5b82359150602083013567ffffffffffffffff811115612c1957600080fd5b612c25858286016127ba565b9150509250929050565b6001600160a01b0394851681529290931660208301526040820152606081019190915260800190565b634e487b7160e01b600052603260045260246000fd5b600181811c90821680612c8257607f821691505b602082108103612ca257634e487b7160e01b600052602260045260246000fd5b50919050565b634e487b7160e01b600052601160045260246000fd5b8082018082111561078f5761078f612ca8565b8181038181111561078f5761078f612ca8565b600060018201612cf657612cf6612ca8565b5060010190565b60208082526022908201527f596f7520617265206e6f7420746865206f776e6572206f662074686973206c6f604082015261636b60f01b606082015260800190565b601f821115610cf057600081815260208120601f850160051c81016020861015612d665750805b601f850160051c820191505b8181101561183457828155600101612d72565b815167ffffffffffffffff811115612d9f57612d9f6127a4565b612db381612dad8454612c6e565b84612d3f565b602080601f831160018114612de85760008415612dd05750858301515b600019600386901b1c1916600185901b178555611834565b600085815260208120601f198616915b82811015612e1757888601518255948401946001909101908401612df8565b5085821015612e355787850151600019600388901b60f8161c191681555b5050505050600190811b01905550565b600060208284031215612e5757600080fd5b5051919050565b600082612e7b57634e487b7160e01b600052601260045260246000fd5b500490565b808202811582820484141761078f5761078f612ca8565b600060208284031215612ea957600080fd5b8151610a6481612781565b634e487b7160e01b600052603160045260246000fd5b600060208284031215612edc57600080fd5b8151610a6481612796565b60008251612ef9818460208701612904565b919091019291505056fea2646970667358221220d3786b233763a2277e8bbbd70e74d52ba273051a8dd5e7ce0ba8a3a147ebf64064736f6c63430008140033",
    "linkReferences": {},
    "deployedLinkReferences": {}
}